{
  "contractName": "ItemManager",
  "abi": [
    {
      "inputs": [],
      "stateMutability": "nonpayable",
      "type": "constructor"
    },
    {
      "anonymous": false,
      "inputs": [
        {
          "indexed": true,
          "internalType": "address",
          "name": "previousOwner",
          "type": "address"
        },
        {
          "indexed": true,
          "internalType": "address",
          "name": "newOwner",
          "type": "address"
        }
      ],
      "name": "OwnershipTransferred",
      "type": "event"
    },
    {
      "anonymous": false,
      "inputs": [
        {
          "indexed": false,
          "internalType": "uint256",
          "name": "index",
          "type": "uint256"
        },
        {
          "indexed": false,
          "internalType": "uint256",
          "name": "itemId",
          "type": "uint256"
        },
        {
          "indexed": false,
          "internalType": "uint256",
          "name": "state",
          "type": "uint256"
        },
        {
          "indexed": false,
          "internalType": "uint256",
          "name": "date",
          "type": "uint256"
        },
        {
          "indexed": false,
          "internalType": "address",
          "name": "itemContract",
          "type": "address"
        }
      ],
      "name": "itemStep",
      "type": "event"
    },
    {
      "inputs": [],
      "name": "owner",
      "outputs": [
        {
          "internalType": "address",
          "name": "",
          "type": "address"
        }
      ],
      "stateMutability": "view",
      "type": "function",
      "constant": true
    },
    {
      "inputs": [],
      "name": "renounceOwnership",
      "outputs": [],
      "stateMutability": "nonpayable",
      "type": "function"
    },
    {
      "inputs": [
        {
          "internalType": "address",
          "name": "newOwner",
          "type": "address"
        }
      ],
      "name": "transferOwnership",
      "outputs": [],
      "stateMutability": "nonpayable",
      "type": "function"
    },
    {
      "inputs": [
        {
          "internalType": "uint256",
          "name": "_itemID",
          "type": "uint256"
        },
        {
          "internalType": "uint256",
          "name": "_itemPrice",
          "type": "uint256"
        }
      ],
      "name": "createItem",
      "outputs": [],
      "stateMutability": "nonpayable",
      "type": "function"
    },
    {
      "inputs": [
        {
          "internalType": "uint256",
          "name": "_index",
          "type": "uint256"
        }
      ],
      "name": "getItem",
      "outputs": [
        {
          "internalType": "uint256",
          "name": "",
          "type": "uint256"
        },
        {
          "internalType": "uint256",
          "name": "",
          "type": "uint256"
        },
        {
          "internalType": "uint256",
          "name": "",
          "type": "uint256"
        },
        {
          "internalType": "uint256",
          "name": "",
          "type": "uint256"
        },
        {
          "internalType": "uint256",
          "name": "",
          "type": "uint256"
        },
        {
          "internalType": "address",
          "name": "",
          "type": "address"
        }
      ],
      "stateMutability": "view",
      "type": "function",
      "constant": true
    },
    {
      "inputs": [
        {
          "internalType": "uint256",
          "name": "_index",
          "type": "uint256"
        }
      ],
      "name": "placeOrder",
      "outputs": [],
      "stateMutability": "payable",
      "type": "function",
      "payable": true
    },
    {
      "inputs": [
        {
          "internalType": "uint256",
          "name": "_index",
          "type": "uint256"
        }
      ],
      "name": "startDelivery",
      "outputs": [],
      "stateMutability": "nonpayable",
      "type": "function"
    },
    {
      "inputs": [
        {
          "internalType": "uint256",
          "name": "_index",
          "type": "uint256"
        }
      ],
      "name": "makeDelivery",
      "outputs": [],
      "stateMutability": "nonpayable",
      "type": "function"
    },
    {
      "inputs": [],
      "name": "withdraw",
      "outputs": [],
      "stateMutability": "nonpayable",
      "type": "function"
    },
    {
      "inputs": [],
      "name": "getBalance",
      "outputs": [
        {
          "internalType": "uint256",
          "name": "",
          "type": "uint256"
        }
      ],
      "stateMutability": "view",
      "type": "function",
      "constant": true
    }
  ],
  "bytecode": "0x608060405234801561001057600080fd5b50600061002161010560201b60201c565b9050806000806101000a81548173ffffffffffffffffffffffffffffffffffffffff021916908373ffffffffffffffffffffffffffffffffffffffff1602179055508073ffffffffffffffffffffffffffffffffffffffff16600073ffffffffffffffffffffffffffffffffffffffff167f8be0079c531659141344cd1fd0a4f28419497f9722a3daafe3b4186f6b6457e060405160405180910390a35033600160006101000a81548173ffffffffffffffffffffffffffffffffffffffff021916908373ffffffffffffffffffffffffffffffffffffffff16021790555061010d565b600033905090565b611bba8061011c6000396000f3fe6080604052600436106100915760003560e01c8063715018a611610059578063715018a6146101ec5780638da5cb5b14610203578063adae08dd1461025a578063ba2255f41461029f578063f2fde38b146102cd57610091565b806312065fe0146100965780632073ae3f146100c15780633129e773146100fc578063385fe0a91461019a5780633ccfd60b146101d5575b600080fd5b3480156100a257600080fd5b506100ab61031e565b6040518082815260200191505060405180910390f35b3480156100cd57600080fd5b506100fa600480360360208110156100e457600080fd5b81019080803590602001909291905050506103ef565b005b34801561010857600080fd5b506101356004803603602081101561011f57600080fd5b8101908080359060200190929190505050610845565b604051808781526020018681526020018581526020018481526020018381526020018273ffffffffffffffffffffffffffffffffffffffff1673ffffffffffffffffffffffffffffffffffffffff168152602001965050505050505060405180910390f35b3480156101a657600080fd5b506101d3600480360360208110156101bd57600080fd5b8101908080359060200190929190505050610928565b005b3480156101e157600080fd5b506101ea610cd8565b005b3480156101f857600080fd5b50610201610e13565b005b34801561020f57600080fd5b50610218610f9b565b604051808273ffffffffffffffffffffffffffffffffffffffff1673ffffffffffffffffffffffffffffffffffffffff16815260200191505060405180910390f35b34801561026657600080fd5b5061029d6004803603604081101561027d57600080fd5b810190808035906020019092919080359060200190929190505050610fc4565b005b6102cb600480360360208110156102b557600080fd5b8101908080359060200190929190505050611307565b005b3480156102d957600080fd5b5061031c600480360360208110156102f057600080fd5b81019080803573ffffffffffffffffffffffffffffffffffffffff16906020019092919050505061154c565b005b6000610328611621565b73ffffffffffffffffffffffffffffffffffffffff166000809054906101000a900473ffffffffffffffffffffffffffffffffffffffff1673ffffffffffffffffffffffffffffffffffffffff16146103e9576040517f08c379a00000000000000000000000000000000000000000000000000000000081526004018080602001828103825260208152602001807f4f776e61626c653a2063616c6c6572206973206e6f7420746865206f776e657281525060200191505060405180910390fd5b47905090565b6103f7611621565b73ffffffffffffffffffffffffffffffffffffffff166000809054906101000a900473ffffffffffffffffffffffffffffffffffffffff1673ffffffffffffffffffffffffffffffffffffffff16146104b8576040517f08c379a00000000000000000000000000000000000000000000000000000000081526004018080602001828103825260208152602001807f4f776e61626c653a2063616c6c6572206973206e6f7420746865206f776e657281525060200191505060405180910390fd5b60006002600083815260200190815260200160002060040160009054906101000a900460ff1660038111156104e957fe5b1161055c576040517f08c379a00000000000000000000000000000000000000000000000000000000081526004018080602001828103825260108152602001807f4f72646572206e6f7420506c616365640000000000000000000000000000000081525060200191505060405180910390fd5b60016002600083815260200190815260200160002060040160009054906101000a900460ff16600381111561058d57fe5b11610600576040517f08c379a000000000000000000000000000000000000000000000000000000000815260040180806020018281038252600f8152602001807f4e6f74207965742053686970706564000000000000000000000000000000000081525060200191505060405180910390fd5b60036002600083815260200190815260200160002060040160009054906101000a900460ff16600381111561063157fe5b106106a4576040517f08c379a00000000000000000000000000000000000000000000000000000000081526004018080602001828103825260118152602001807f416c72656164792044656c69766572656400000000000000000000000000000081525060200191505060405180910390fd5b60036002600083815260200190815260200160002060040160006101000a81548160ff021916908360038111156106d757fe5b0217905550426002600083815260200190815260200160002060030160006004548152602001908152602001600020819055507f89ef39ff94bd0e71ca058c4d053047366788becc107c8acdebe241eafcb7416e8160026000848152602001908152602001600020600101546002600085815260200190815260200160002060040160009054906101000a900460ff16600381111561077257fe5b6002600086815260200190815260200160002060030160006004548152602001908152602001600020546002600087815260200190815260200160002060000160009054906101000a900473ffffffffffffffffffffffffffffffffffffffff16604051808681526020018581526020018481526020018381526020018273ffffffffffffffffffffffffffffffffffffffff1673ffffffffffffffffffffffffffffffffffffffff1681526020019550505050505060405180910390a160046000815480929190600101919050555050565b600080600080600080866002600089815260200190815260200160002060010154600260008a815260200190815260200160002060020154600260008b81526020019081526020016000206003016000600160045403815260200190815260200160002054600260008c815260200190815260200160002060040160009054906101000a900460ff1660038111156108d957fe5b600260008d815260200190815260200160002060000160009054906101000a900473ffffffffffffffffffffffffffffffffffffffff1680905095509550955095509550955091939550919395565b610930611621565b73ffffffffffffffffffffffffffffffffffffffff166000809054906101000a900473ffffffffffffffffffffffffffffffffffffffff1673ffffffffffffffffffffffffffffffffffffffff16146109f1576040517f08c379a00000000000000000000000000000000000000000000000000000000081526004018080602001828103825260208152602001807f4f776e61626c653a2063616c6c6572206973206e6f7420746865206f776e657281525060200191505060405180910390fd5b60006002600083815260200190815260200160002060040160009054906101000a900460ff166003811115610a2257fe5b11610a95576040517f08c379a00000000000000000000000000000000000000000000000000000000081526004018080602001828103825260108152602001807f4f72646572206e6f7420506c616365640000000000000000000000000000000081525060200191505060405180910390fd5b600280600083815260200190815260200160002060040160009054906101000a900460ff166003811115610ac557fe5b10610b38576040517f08c379a00000000000000000000000000000000000000000000000000000000081526004018080602001828103825260128152602001807f416c726561647920696e205472616e736974000000000000000000000000000081525060200191505060405180910390fd5b600280600083815260200190815260200160002060040160006101000a81548160ff02191690836003811115610b6a57fe5b0217905550426002600083815260200190815260200160002060030160006004548152602001908152602001600020819055507f89ef39ff94bd0e71ca058c4d053047366788becc107c8acdebe241eafcb7416e8160026000848152602001908152602001600020600101546002600085815260200190815260200160002060040160009054906101000a900460ff166003811115610c0557fe5b6002600086815260200190815260200160002060030160006004548152602001908152602001600020546002600087815260200190815260200160002060000160009054906101000a900473ffffffffffffffffffffffffffffffffffffffff16604051808681526020018581526020018481526020018381526020018273ffffffffffffffffffffffffffffffffffffffff1673ffffffffffffffffffffffffffffffffffffffff1681526020019550505050505060405180910390a160046000815480929190600101919050555050565b610ce0611621565b73ffffffffffffffffffffffffffffffffffffffff166000809054906101000a900473ffffffffffffffffffffffffffffffffffffffff1673ffffffffffffffffffffffffffffffffffffffff1614610da1576040517f08c379a00000000000000000000000000000000000000000000000000000000081526004018080602001828103825260208152602001807f4f776e61626c653a2063616c6c6572206973206e6f7420746865206f776e657281525060200191505060405180910390fd5b600160009054906101000a900473ffffffffffffffffffffffffffffffffffffffff1673ffffffffffffffffffffffffffffffffffffffff166108fc610de561031e565b9081150290604051600060405180830381858888f19350505050158015610e10573d6000803e3d6000fd5b50565b610e1b611621565b73ffffffffffffffffffffffffffffffffffffffff166000809054906101000a900473ffffffffffffffffffffffffffffffffffffffff1673ffffffffffffffffffffffffffffffffffffffff1614610edc576040517f08c379a00000000000000000000000000000000000000000000000000000000081526004018080602001828103825260208152602001807f4f776e61626c653a2063616c6c6572206973206e6f7420746865206f776e657281525060200191505060405180910390fd5b600073ffffffffffffffffffffffffffffffffffffffff166000809054906101000a900473ffffffffffffffffffffffffffffffffffffffff1673ffffffffffffffffffffffffffffffffffffffff167f8be0079c531659141344cd1fd0a4f28419497f9722a3daafe3b4186f6b6457e060405160405180910390a360008060006101000a81548173ffffffffffffffffffffffffffffffffffffffff021916908373ffffffffffffffffffffffffffffffffffffffff160217905550565b60008060009054906101000a900473ffffffffffffffffffffffffffffffffffffffff16905090565b610fcc611621565b73ffffffffffffffffffffffffffffffffffffffff166000809054906101000a900473ffffffffffffffffffffffffffffffffffffffff1673ffffffffffffffffffffffffffffffffffffffff161461108d576040517f08c379a00000000000000000000000000000000000000000000000000000000081526004018080602001828103825260208152602001807f4f776e61626c653a2063616c6c6572206973206e6f7420746865206f776e657281525060200191505060405180910390fd5b600030826003546040516110a09061176d565b808473ffffffffffffffffffffffffffffffffffffffff1673ffffffffffffffffffffffffffffffffffffffff1681526020018381526020018281526020019350505050604051809103906000f080158015611100573d6000803e3d6000fd5b5090508060026000600354815260200190815260200160002060000160006101000a81548173ffffffffffffffffffffffffffffffffffffffff021916908373ffffffffffffffffffffffffffffffffffffffff16021790555082600260006003548152602001908152602001600020600101819055508160026000600354815260200190815260200160002060020181905550426002600060035481526020019081526020016000206003016000600454815260200190815260200160002081905550600060026000600354815260200190815260200160002060040160006101000a81548160ff021916908360038111156111f957fe5b02179055507f89ef39ff94bd0e71ca058c4d053047366788becc107c8acdebe241eafcb7416e6003548460026000600354815260200190815260200160002060040160009054906101000a900460ff16600381111561125457fe5b600260006003548152602001908152602001600020600301600060045481526020019081526020016000205485604051808681526020018581526020018481526020018381526020018273ffffffffffffffffffffffffffffffffffffffff1673ffffffffffffffffffffffffffffffffffffffff1681526020019550505050505060405180910390a1600360008154809291906001019190505550600460008154809291906001019190505550505050565b60016002600083815260200190815260200160002060040160009054906101000a900460ff16600381111561133857fe5b106113ab576040517f08c379a00000000000000000000000000000000000000000000000000000000081526004018080602001828103825260128152602001807f4974656d204e6f7420617661696c61626c65000000000000000000000000000081525060200191505060405180910390fd5b60016002600083815260200190815260200160002060040160006101000a81548160ff021916908360038111156113de57fe5b0217905550426002600083815260200190815260200160002060030160006004548152602001908152602001600020819055507f89ef39ff94bd0e71ca058c4d053047366788becc107c8acdebe241eafcb7416e8160026000848152602001908152602001600020600101546002600085815260200190815260200160002060040160009054906101000a900460ff16600381111561147957fe5b6002600086815260200190815260200160002060030160006004548152602001908152602001600020546002600087815260200190815260200160002060000160009054906101000a900473ffffffffffffffffffffffffffffffffffffffff16604051808681526020018581526020018481526020018381526020018273ffffffffffffffffffffffffffffffffffffffff1673ffffffffffffffffffffffffffffffffffffffff1681526020019550505050505060405180910390a160046000815480929190600101919050555050565b611554611621565b73ffffffffffffffffffffffffffffffffffffffff166000809054906101000a900473ffffffffffffffffffffffffffffffffffffffff1673ffffffffffffffffffffffffffffffffffffffff1614611615576040517f08c379a00000000000000000000000000000000000000000000000000000000081526004018080602001828103825260208152602001807f4f776e61626c653a2063616c6c6572206973206e6f7420746865206f776e657281525060200191505060405180910390fd5b61161e81611629565b50565b600033905090565b600073ffffffffffffffffffffffffffffffffffffffff168173ffffffffffffffffffffffffffffffffffffffff1614156116af576040517f08c379a0000000000000000000000000000000000000000000000000000000008152600401808060200182810382526026815260200180611b5f6026913960400191505060405180910390fd5b8073ffffffffffffffffffffffffffffffffffffffff166000809054906101000a900473ffffffffffffffffffffffffffffffffffffffff1673ffffffffffffffffffffffffffffffffffffffff167f8be0079c531659141344cd1fd0a4f28419497f9722a3daafe3b4186f6b6457e060405160405180910390a3806000806101000a81548173ffffffffffffffffffffffffffffffffffffffff021916908373ffffffffffffffffffffffffffffffffffffffff16021790555050565b6103e48061177b8339019056fe608060405234801561001057600080fd5b506040516103e43803806103e48339818101604052606081101561003357600080fd5b8101908080519060200190929190805190602001909291908051906020019092919050505082600360006101000a81548173ffffffffffffffffffffffffffffffffffffffff021916908373ffffffffffffffffffffffffffffffffffffffff160217905550816000819055508060028190555050505061032b806100b96000396000f3fe6080604052366102cb57600060015414610081576040517f08c379a00000000000000000000000000000000000000000000000000000000081526004018080602001828103825260148152602001807f5061796d656e7420416c726561647920446f6e6500000000000000000000000081525060200191505060405180910390fd5b60005434146100f8576040517f08c379a000000000000000000000000000000000000000000000000000000000815260040180806020018281038252601b8152602001807f506c65617365205061792074686520457861637420416d6f756e74000000000081525060200191505060405180910390fd5b346001600082825401925050819055506000600360009054906101000a900473ffffffffffffffffffffffffffffffffffffffff1673ffffffffffffffffffffffffffffffffffffffff1634600254604051602401808281526020019150506040516020818303038152906040527fba2255f4000000000000000000000000000000000000000000000000000000007bffffffffffffffffffffffffffffffffffffffffffffffffffffffff19166020820180517bffffffffffffffffffffffffffffffffffffffffffffffffffffffff83818316178352505050506040518082805190602001908083835b6020831061020757805182526020820191506020810190506020830392506101e4565b6001836020036101000a03801982511681845116808217855250505050505090500191505060006040518083038185875af1925050503d8060008114610269576040519150601f19603f3d011682016040523d82523d6000602084013e61026e565b606091505b50509050806102c8576040517f08c379a00000000000000000000000000000000000000000000000000000000081526004018080602001828103825260258152602001806102d16025913960400191505060405180910390fd5b50005b600080fdfe5061796d656e74206e6f742070726f6365737365642c20526576657274696e67204261636ba2646970667358221220b17aa838ca69c23a3d7df8aef992b6c6cf2612a0c7bb01ed9acc406ddb2b862764736f6c634300060000334f776e61626c653a206e6577206f776e657220697320746865207a65726f2061646472657373a26469706673582212204e7400be48df56ea1bcb906d269f4dadc51aa741febab52423cbf4792e02bf5864736f6c63430006000033",
  "source": "pragma solidity ^0.6.0;\n\nimport \"./Item.sol\";\nimport \"./Ownable.sol\";\n\ncontract  ItemManager is Ownable {\n\naddress payable private _Owner;\n\nconstructor() public{\n_Owner = msg.sender;\n}\n\nenum itemState{Created,PaymentDone,InTransit,Delivered}\n\nstruct S_Item{\nItem item;\nuint id;\nuint itemPrice;\nmapping(uint=>uint) Item_Timeline;\nItemManager.itemState state;\n}\n\nmapping(uint=>S_Item) itemList;\nuint itemIndex;\nuint itemTimelineIndex;\n\nevent itemStep(uint index, uint itemId, uint state,uint date, address itemContract);\n\nfunction createItem(uint _itemID, uint _itemPrice) public onlyOwner{\nItem item = new Item(this, _itemPrice, itemIndex);\nitemList[itemIndex].item = item;\nitemList[itemIndex].id = _itemID;\nitemList[itemIndex].itemPrice = _itemPrice;\nitemList[itemIndex].Item_Timeline[itemTimelineIndex] = now;\nitemList[itemIndex].state = itemState.Created;\n\nemit itemStep(itemIndex,_itemID,uint(itemList[itemIndex].state),itemList[itemIndex].Item_Timeline[itemTimelineIndex],address(item));\n\nitemIndex++;\nitemTimelineIndex++;\n}\n\nfunction getItem(uint _index) view public returns(uint, uint,uint,uint,uint,address){\nreturn (_index, itemList[_index].id,itemList[_index].itemPrice,itemList[_index].Item_Timeline[itemTimelineIndex-1],uint(itemList[_index].state),address(itemList[_index].item));\n}\n\nfunction placeOrder(uint _index) public payable{\nrequire(uint(itemList[_index].state)<1,\"Item Not available\");\nitemList[_index].state=itemState.PaymentDone;\nitemList[_index].Item_Timeline[itemTimelineIndex]=now;\nemit itemStep(_index, itemList[_index].id, uint(itemList[_index].state), itemList[_index].Item_Timeline[itemTimelineIndex],address(itemList[_index].item));\nitemTimelineIndex++;\n}\n\nfunction startDelivery(uint _index) public onlyOwner{\nrequire(uint(itemList[_index].state)>0,\"Order not Placed\");\nrequire(uint(itemList[_index].state)<2,\"Already in Transit\");\nitemList[_index].state=itemState.InTransit;\nitemList[_index].Item_Timeline[itemTimelineIndex]=now;\nemit itemStep(_index,itemList[_index].id, uint(itemList[_index].state), itemList[_index].Item_Timeline[itemTimelineIndex],address(itemList[_index].item));\nitemTimelineIndex++;\n}\n\nfunction makeDelivery(uint _index) public onlyOwner{\nrequire(uint(itemList[_index].state)>0,\"Order not Placed\");\nrequire(uint(itemList[_index].state)>1,\"Not yet Shipped\");\nrequire(uint(itemList[_index].state)<3,\"Already Delivered\");\nitemList[_index].state=itemState.Delivered;\nitemList[_index].Item_Timeline[itemTimelineIndex]=now;\nemit itemStep(_index,itemList[_index].id, uint(itemList[_index].state), itemList[_index].Item_Timeline[itemTimelineIndex],address(itemList[_index].item));\nitemTimelineIndex++;\n}\n\nfunction withdraw() public onlyOwner{\n_Owner.transfer(getBalance());\n}\n\nfunction getBalance() public view onlyOwner returns(uint){\nreturn address(this).balance;\n}\n}",
  "sourcePath": "/home/mihirsinh/Desktop/TruffleProject/contracts/ItemManager.sol",
  "compiler": {
    "name": "solc",
    "version": "0.6.0+commit.26b70077.Emscripten.clang"
  },
  "schemaVersion": "3.0.23",
  "updatedAt": "2020-03-27T12:00:46.040Z",
  "networkType": "ethereum",
  "devdoc": {
    "methods": {
      "owner()": {
        "details": "Returns the address of the current owner."
      },
      "renounceOwnership()": {
        "details": "Leaves the contract without owner. It will not be possible to call `onlyOwner` functions anymore. Can only be called by the current owner.     * NOTE: Renouncing ownership will leave the contract without an owner, thereby removing any functionality that is only available to the owner."
      },
      "transferOwnership(address)": {
        "details": "Transfers ownership of the contract to a new account (`newOwner`). Can only be called by the current owner."
      }
    }
  },
  "userdoc": {
    "methods": {}
  }
}